S00E0000546573745F322E73726563E5
S1130000E020002025010000210100002101000062
S113001000000000000000000000000000000000DC
S113002000000000000000000000000021010000AA
S11300300000000000000000210100002101000078
S11300402101000021010000210100002101000024
S11300501D0F00002101000021010000210100000A
S11300602101000021010000210100002101000004
S1130070210100008D130000210100002101000076
S11300802101000021010000A1190000210100004C
S11300902101000000000000000000002101000018
S11300A021010000210100002101000021010000C4
S11300B00000000010B5064C2378002B07D1054B37
S11300C0002B02D0044800E000BF0123237010BDC0
S11300D00000002000000000341D0000084B10B593
S11300E0002B03D00749084800E000BF0748036815
S11300F0002B00D110BD064B002BFBD09847F9E72D
S11301000000000004000020341D0000341D000025
S11301100000000010B5014B984710BD21040000F9
S1130120FEE70000F8B5234A234B9A4209D0224B3C
S1130130204A03E011681960043304321F498B42DA
S1130140F8D31F4B02E000221A6004331D4A934285
S1130150F9D31D4AFF211D4B8B439360FD39902336
S11301605B001B4AD1501B4AD3780325AB430224BE
S11301702343D370D3780C27BB4308263343D3706F
S1130180154B987B30229043202210439873997B1F
S1130190B943314399739A7BAA4322439A730F4A12
S11301A0516880230B4353600D4B98470D4B984780
S11301B0FEE7C046341D00000000002000000020BF
S11301C000000020DC00002000ED00E00000000042
S11301D000700041005000410048004100400041CF
S11301E06D1B0000911A000010B5084A116A8023A3
S11301F01B010B431362064A064B5A80064B984771
S1130200020006490648074B984710BD0004004009
S11302101B430000000C00407F190000002C00422A
S1130220440000206D08000070B5114A114B5A803B
S1130230C020C0058024E40044600F4B0F4A9A623A
S11302400F4A9A6244604A215A5C04252A43D2B276
S11302505A5484615A5C012082430243D2B25A54F4
S113026015395A5C0F2082435A54064B984770BD87
S113027005400000000C004000440041000402401E
S1130280000002C0F5040000F0B5C64600B5C02762
S1130290FF0520237B60244B244A9A62244A9A62F5
S11302A045215A5C042082435A545A5C03388046E0
S11302B08243844660460243D2B25A5413395A5C8C
S11302C00F26324030252A43D2B25A5440227A6152
S11302D0BA60184A9A62C0210906996246201A5CDB
S11302E04446A24364462243D2B21A543324185DCE
S11302F00F22904303221043C0B2185580227A6122
S1130300BA600D4A9A6299624722995C40468143D9
S113031060460143C9B299541A5D32402A43D2B2AD
S11303201A5504BC9046F0BD004400412000024030
S1130330000002C04000004080000040044A136AEC
S113034004210B431362034A034B5A807047C0468F
S11303500004004014400000000C004010B5044BA1
S1130360984704490448054B9847054B984710BDE6
S11303703D03000000080042B000002071060000A8
S113038089020000044A136A40210B431362034AA2
S1130390034B5A807047C0460004004018420000D6
S11303A0000C004030B50F4BC822995C0125A943CD
S11303B001242143C9B29954B420195CB93A914338
S11303C003221143C9B21954C9215A5CAA432243D6
S11303D0D2B25A541A5CBA390A4030210A43D2B212
S11303E01A5430BD0044004110B582B0064B984702
S11303F0002300931033054A05490648064CA047DC
S1130400064B984702B010BD850300001C00002075
S11304100018004260000020450B0000A503000006
S113042010B5144B9847C022D20580239B009361DA
S11304309360114B11499962C021090699624924BC
S1130440195D0120814319558021890291619160D0
S11304508022D2059A620A4A9A6251215A5C8243E6
S11304605A54084B9847084B9847084B9847084BF1
S1130470984710BD050E00000044004100020040F2
S1130480020000C0290200005D030000E90300002F
S1130490E9010000EFF31083036072B6BFF35F8FCE
S11304A07047BFF35F8F036883F3108870470000C1
S11304B070B50125002407E00D4AB358002B00D085
S11304C0984770BD013AD5B2AC42FAD82B195B10EB
S11304D0DAB2002AF5D1FF210B40DE000449891964
S11304E049688142E8D0EDD20132D4B2ECE7C0468B
S11304F02C00002010B50023002B03D00748084B24
S1130500984710BD074AD90050180124644244603A
S11305100020885001339BB2EEE7C046B1040000CE
S11305203D0E00002C000020F0B5C64600B584B096
S113053001900023002B10D00023984600291BD0E3
S11305404346002B46D1002B24D1DA002A4C125901
S1130550002A18D00133DBB2F5E7DC00264A121971
S113056052680198824202D00133DBB2E2E7224BA7
S1130570E15001239846E1E74346002B35D001982A
S11305801E4B98472DE0DD0029516519019A6A60D8
S113059001229046002201E00132D2B21900114337
S11305A018D11549DC000C196768D4000919496889
S11305B08F42F1D24C1CEFD002A98C460E4FD100D1
S11305C07918644641C941C4DD007D19614611C9E9
S11305D011C5E1E74346002B0AD001210198074BDE
S11305E0984704B004BC9046F0BD0D204042F8E7A3
S11305F00D204042F5E7C0462C000020D10E00003B
S113060070B504000D00160000280ED000290AD091
S1130610012034220649074B9847236832002900F9
S11306202000984770BD0020F3E70020F1E7C046A2
S1130630B41B0000850C000070B504000D0016000A
S113064000280ED000290AD001203D220649074B7C
S113065098476368320029002000984770BD002045
S1130660F3E70020F1E7C046B41B0000850C00004E
S113067070B504000D00002817D0002913D0012004
S113068040220B490B4B98476560201D29000A4BFB
S11306909847002806DB094BA382094B2361094BC9
S11306A0E360002070BD0020EAE70020E8E7C046D0
S11306B0C81B0000850C0000A11300000080FFFF90
S11306C0750700003907000010B50400431E984167
S11306D0C0B257220349044B9847201D034B984747
S11306E010BDC046C81B0000850C00009D1500000D
S11306F030B587B004000D00002815D0002911D0B2
S11307000120B32209490A4B98472B6803936B686D
S11307100493AB6801930593201D03A9054B9847E7
S113072007B030BD0020ECE70020EAE7C81B00005A
S1130730850C0000D515000070B584B004000E00CF
S11307401500431E9841C0B2A3220749074B98479E
S113075020000C38002302930196039501A9044B51
S1130760984704B070BDC046C81B0000850C00004B
S1130770F106000070B584B004000E001500431E9D
S11307809841C0B287220749074B984720000C388C
S1130790029600230193039501A9044B984704B0E2
S11307A070BDC046C81B0000850C0000F1060000A7
S11307B0F8B50668002E02D0330000250CE0104B7B
S11307C0984718E09F68BC466444A41A01348F68B3
S11307D0BC420BD21D001B68002B07D05C689442FE
S11307E0F0D8A41A9F68BC466444F0E7B34203D02F
S11307F02800044B9847F8BD014B9847FBE7C046D7
S1130800A50C0000D10C0000F8B50500446903698B
S11308105E1C0661037EDB0702D4037E9B070AD5B8
S11308202B7E02221343DBB22B76F8BD6F69E3689B
S1130830200098473C00002CF7D06368F31AA268A4
S11308409342F2D32F0014373800064B9847237C89
S1130850012BEBD16660320021003800024B98472F
S1130860E4E7C046D90C0000B107000070B50400ED
S11308700D00002812D000290ED001203B22084987
S1130880084B984729002000074B98470023236111
S1130890064B2360002070BD0020EFE70020EDE749
S11308A0E41B0000850C000041180000090800004A
S11308B010B50400431E9841C0B253220749084BA7
S11308C098472000074B9847002804D12000064B86
S11308D09847002010BD11204042FBE7E41B0000B4
S11308E0850C0000731900005919000010B50400AC
S11308F0431E9841C0B261220749084B9847200023
S1130900074B9847002804D02000064B9847002046
S113091010BD11204042FBE7E41B0000850C0000E1
S1130920731900006719000070B582B004000D004F
S1130930002826D0002922D001207A221F49204BEA
S11309409847237E01221343DBB223762600143614
S1130950290030001B4B9847002814D123696B6091
S1130960226929003000184B9847237E01229343C3
S11309702376237E9B0712D4002002B070BD002092
S1130980DBE70020D9E7237E0122934323767E32DE
S11309900A4900200A4B984712204042EDE701A87B
S11309A00A4B9847237E0222934323762000084B68
S11309B0984701A8074B98470020DEE7E41B000096
S11309C0850C00008D0C0000B107000095040000A8
S11309D085190000A304000010B508380023036340
S11309E0436A002B00D0984710BD10B50838002387
S11309F00363C36A002B00D0984710BD10B50400F0
S1130A002C30044B9847236A083C002B01D020006B
S1130A10984710BD850D000070B504000E00150048
S1130A2000281DD000291DD0002A1DD100203C2201
S1130A30FF321049104B98474423E25A0833E35AD3
S1130A409A4213D1A6644C23E5520022083BE25299
S1130A50433B236320000830084B9847280070BDAF
S1130A600020E4E70020E2E70120E0E71C20404208
S1130A70F5E7C046FC1B0000850C000003130000D2
S1130A8070B504000200083A4423D35A4C21525A48
S1130A9093420DD00200016C083A5D1C44201552AB
S1130AA0C95C2000044B98472000044B984770BD54
S1130AB0034B9847FBE7C046FB12000003130000FA
S1130AC00B130000F0B585B004000D0016000028DB
S1130AD017D0002917D0002A17D10020AC225200C9
S1130AE01249134B984703A8124B984734342000FB
S1130AF00194114B9847070003A8104B9847002412
S1130B000BE00020EAE70020E8E70120E6E70134F3
S1130B10A4B2691801980A4B98472100A74201D949
S1130B20B442F4D3200005B0F0BDC046FC1B000065
S1130B30850C000095040000C50D0000A30400000E
S1130B40390D0000F8B504000D0016001F00002840
S1130B5026D0002926D0002A26D0002B26D100201A
S1130B603A221549154B9847200034303A00310099
S1130B70134B984700281BD1200008302900114B43
S1130B80984700280BD1104B6360104B2360104B27
S1130B90A360104BE360104B2361104B6361F8BDFD
S1130BA00020DDE70020DBE70020D9E70120D7E7BC
S1130BB00D204042F3E7C046FC1B0000850C0000FA
S1130BC0ED0C00005D120000C50A0000190A0000C7
S1130BD0810A0000FD090000D9090000EB090000AA
S1130BE010B50400431E9841C0B261220449054B6C
S1130BF0984720000830044B9847002010BDC04699
S1130C00FC1B0000850C0000E912000070B5050013
S1130C100E001400431E9841C0B283221649174B9C
S1130C209847012E11D0002E04D0022E18D00D208A
S1130C30404209E0AC62621E9441E2B228000830EE
S1130C4001210F4B9847002070BD6C62621E9441D5
S1130C50E2B2280008300221094B98470020F3E74C
S1130C60EC62621E9441E2B2280008300321044B76
S1130C7098470020E8E7C046FC1B0000850C0000F4
S1130C8015130000002800D100BE70470368002B34
S1130C9003D08B4203D01B68F9E700207047012082
S1130CA0FCE7000070B504000D00064B98470123D3
S1130CB05840C0B239220449044B984723682B603A
S1130CC0256070BD8D0C00001C1C0000850C00000C
S1130CD003680B60016070470368002B03D01A6837
S1130CE00260180070470020FCE7000070B50400A3
S1130CF00E001500002812D0002912D0002A12D1AB
S1130D00002028220A490B4B98476B1E2B420CD11A
S1130D1063600023A360E3602660002070BD0020B0
S1130D20EFE70020EDE70120EBE70D204042F5E777
S1130D303C1C0000850C000070B504000D00002868
S1130D4016D0002912D0012040220C490C4B9847A0
S1130D50A368E2689A420DD0626813402268D35CAB
S1130D602B70A3680133A360002070BD0020EBE763
S1130D700020E9E70A204042F7E7C0463C1C000097
S1130D80850C000070B504000D00431E9841C0B2EC
S1130D9051220A490A4B98476368E2681340226863
S1130DA0D554E368A2689A1A61688A4201D9591A2B
S1130DB0A1600133E360002070BDC0463C1C00000C
S1130DC0850C000010B50400431E9841C0B2672290
S1130DD00349044B9847E068A368C01A10BDC04695
S1130DE03C1C0000850C000043B2002B07DB1F23D2
S1130DF018401E3B83408022520001498B507047AB
S1130E0000E100E010B5084A536802210B43536027
S1130E10064B9847064B98470220064CA047064BC2
S1130E209847FD20A04710BD004000414D10000030
S1130E30E9160000D50F00002D170000214B5B7848
S1130E40DB09FBD11F4B5B78DB09FBD11D4B1B7806
S1130E509B070AD500221B4B1A701A4B5B78DB09DF
S1130E60FBD1184B5B78DB09FBD10122154B1A70BF
S1130E70144B5B78DB09FBD1124B5B78DB09FBD1AC
S1130E80104B00229A705A605A619A618022920033
S1130E90DA611A7802210A43D2B21A70094B5B78DC
S1130EA0DB09FBD1084B102280215A50BFF34F8F2E
S1130EB0BFF36F8F0131FF315A501A60034B186032
S1130EC0002070470018004000E100E034000020DA
S1130ED00023002B0BD0FF22FF2A17D000290FD1AB
S1130EE0012393400B4A93601361002070470A2842
S1130EF002D00133DBB2ECE7DA00074BD25CEBE75C
S1130F0001239340034AD3600020EFE70D204042C1
S1130F10ECE7C04600180040601C000070B582B0C9
S1130F20264B1A69D9680A400192019A1A61244B26
S1130F301868431E9841C0B2D2222249224B9847D6
S1130F4001256D422EE00139CEB2B0420ED83218DE
S1130F505210D1B2FF231340DB001C4A9B5CA34216
S1130F6003D0F0DA0131C8B2EFE70A256B1C03D0D5
S1130F70134B1B68280098470122A240019B93430E
S1130F8001930198124B9847013844B2631C02D074
S1130F9001260020D9E7094B1A69D9680A40019251
S1130FA0019A1A61019B002B05D00198084B9847C0
S1130FB0013844B2EAE702B070BDC04600180040F0
S1130FC034000020681C0000850C0000601C000038
S1130FD0191B0000C3070AD5174B802252009A60E0
S1130FE0832252025A60144B5B78DB09FBD18307DE
S1130FF009D5114B0222FF329A60104A5A600E4BF7
S11310005B78DB09FBD1430709D50B4B81225200E6
S11310109A600B4A5A60084B5B78DB09FBD10307E3
S113102008D5054B074A9A60074A5A60024B5B7819
S1131030DB09FBD17047C046000C004001032900C6
S1131040020701000304000003031100064B1A7A8F
S1131050D2B21A725A7AD2B25A729A7AD2B29A72B4
S1131060DA7AD2B2DA72704700040040024B9C462E
S11310706044800AC0B2704700F8FFBD10B58469AF
S1131080237EDB0702D5A37DDB070FD4237E9B07DA
S113109002D5A37D9B070ED4237E5B0715D5628BF7
S11310A037231A420CD00833638310BD0123237500
S11310B003689847F9E70223237583689847F4E7A0
S11310C04368218DC9B29847EFE7237EDB09ECD052
S11310D080232376C3689847638B9BB26383E4E7DA
S11310E0034B984200D07047024B1960FBE7C0469F
S11310F0001800423800002010B5024B9847093010
S1131100C0B210BD6D100000C369DB0708D40368CA
S1131110022213430360C3699B07FCD1002070477C
S113112004204042FBE7000010B50B4B9847020037
S11311300020002806D0094A09490020094B984795
S1131140002010BD83001B189900074BCB5C9A420A
S1131150F7D00130C0B2ECE76D1000005E02000071
S1131160D01C0000850C0000801C000070B5040039
S1131170384B9847E369DB071DD483001B189A009A
S1131180354B9B185A681C231A40E3699B07FCD112
S113119023689B0709D5236802218B432360E369F5
S11311A09B07FCD1E3699B07FCD401231343236011
S11311B0E3699B07FCD1E369DB07FCD483001B18BC
S11311C09A00254B9B185B682360E3699B07FCD15D
S11311D083001B189A00204B9B189B686360E3698B
S11311E05B07FCD183001B189A001B4B9B185B68A0
S11311F09A040BD4C022D201134207D183001B18D6
S11312009A00154B9B189B89A38115E083001B183A
S11312109A00114989188A89A389D204D20C5B0BDC
S11312205B031343A3818B7B07221A40A3895203D8
S1131230DB04DB0C1343A381074A83001D18A900B8
S11312400D005118C97BA1735219127C3023E2544A
S1131250002070BD29110000801C000070B506003C
S11312600C00431E9841C0B2C4221949194B984737
S11312702000194B9847051E01D0280070BDB461A9
S113128031002000154B98472000154B984743B276
S1131290002B0ADB1F21014001228A408021114CCE
S11312A06250BFF34F8FBFF36F8F002B07DB1F21FB
S11312B0014001228A40C02149000A4C6250002B9F
S11312C0DBDB1F2318401E3B8340064A1360D4E730
S11312D0D01C0000850C00006D110000E11000001E
S11312E0F910000000E100E08269136802210B4359
S11312F01360D3699B07FCD17047836989B2198550
S11313007047836901229A757047836902229A752E
S11313107047000070B504000D001600431E98418C
S1131320C0B2174A1749184B9847002D0BD0022D0D
S113133009D0012D18D0032D0FD1A369002E1CD084
S113134080229A7509E0A369002E07D101221A753B
S1131350A369002E05D102221A7570BD01229A7567
S1131360F6E702229A75F8E7A369002E02D1042257
S11313701A75F2E704229A75EFE780221A75ECE7F2
S11313801E020000D01C0000850C000010B5024BAA
S11313901868024B984710BD380000207D100000EB
S11313A070B506000C000800714B98470023002B11
S11313B000D184E00025002E00D18DE0002C00D166
S11313C088E001206B4A6C496C4B9847002D00D192
S11313D0CBE0E369DB0721D42A786B781B02134343
S11313E0AA7812041343EA7812061A431C231A40FB
S11313F0E3699B07FCD123689B0709D52368022175
S11314008B432360E3699B07FCD1E3699B07FCD40E
S1131410012313432360E3699B07FCD1E369DB07E2
S1131420FCD434602B786A7812021A43AB781B041C
S11314301A43EB781B0613431C221340082B4DD090
S1131440002C00D18DE0002D00D188E001204C4A11
S113145049494A4B98472B786A7812021A43AB7869
S11314601B041A43EB781B061343464A13402360BC
S1131470E3699B07FCD12B796A7912021A43AB7991
S11314801B041A43EB791B0613433F4A1340802283
S1131490920213436360E3695B07FCD12B7B2373E4
S11314A06A7B3023E2542B795B075CD101233371CF
S11314B0AA7BEB7B1B021343F380002070BD002842
S11314C002D00133DBB272E71D01EA182F4D3C351F
S11314D0AD1870E7002075E7002073E7002C3CD0BE
S11314E0002D38D001202A4A2349244B98472B78D1
S11314F06A7812021A43AB781B041A43EB781B0672
S11315001343204A13402360E3699B07FCD12B79E2
S11315106A7912021A43AB791B041A43EB791B064E
S113152013431C4A13401C4A13436360E3695B077B
S1131530FCD12B7A6A7A12021A43AB7A1B041A433F
S1131540EB7A1B06134363626A7B3023E254E3693C
S1131550002BFCD1A7E70020C5E70020C3E700204B
S113156075E7002073E70223A1E70D204042A5E7B9
S11315706D10000052090000D01C0000850C000012
S113158017090000FCFEFFFFBF1DFDFF801C0000CB
S11315902B090000BFDDFDFF4002020010B5041E50
S11315A00DD00368002B08D00120064A0649074BDA
S11315B098472068064B984710BD0020F5E70020A7
S11315C0F3E7C046AD090000D01C0000850C000004
S11315D009110000F0B5CE46474680B589B0814672
S11315E00D0004680B6803934B6804930023059370
S11315F006930679002814D0002C10D00120374A15
S11316003749384B9847E3695B0764D1E3699B0723
S1131610FCD123689B0720D41420404256E00020CC
S1131620EDE70020EBE700222DE048780002474672
S11316300743B84602310391013205924246A26241
S11316405BB2002B35DB002000283ADB0598AB6841
S1131650984202D3069A934233D9237EDBB25A07C7
S1131660E1D5A16A049A002A08D0501C0490117094
S1131670012E03D9901C0490090A5170069A019214
S1131680013206920122002ADAD10699059A914282
S1131690D6D34946C888D907D2D50399002906D09C
S11316A0481C039008788046012EBED8C4E78046C3
S11316B0C2E701235B4263838133237613204042D4
S11316C0C2E7237E9B07FCD00323237609B00CBC1E
S11316D090469946F0BD04204042F7E7B20A000064
S11316E0D01C0000850C00000E4A116A090C136A14
S11316F09B0F9B0709040C4801400B4302210B4339
S1131700136293690B439361137F1D310B4013776D
S1131710044BDB681B07FBD5024A136A80210B4389
S113172013627047000800400000FF0F8222D201BC
S11317301C4B5A8002221C4B9A841B4BDB68DB0631
S1131740FBD51A4A184BDA62194B1B689B0E3F2BC8
S113175020D09B02802292001343134A93620623F3
S11317609384938C5B0718D50F4BDA68D02313400E
S1131770D02BF9D10C4A938C80210B439BB29384D8
S1131780084B5B78DB09FBD1074A936902218B4341
S113179093617047FC23DB01DFE7034BDB68DB0667
S11317A0FBD5E7E7000C004000080040B805010441
S11317B02460800010B5C3689A7BD20700D410BDA2
S11317C001229A7303689847F9E70000024B9C468C
S11317D06044800AC0B2704700D4FFBD034B9842F6
S11317E000D07047024B1960FBE7C046002C004252
S11317F03C00002010B50E4B98470330C0B20023C4
S1131800002B08D09F2252000A4900200A4B984717
S11318100120404210BD9A00D2189100074A8A5C08
S1131820904202D00133DBB2EAE758B2F2E7C04695
S1131830CD170000001D0000850C0000EC1C00000A
S113184070B506000C0008003C4B98470500F46096
S11318508B223B4901203B4B9847E37BDB09FCD1BE
S113186023889B0704D500232380E37BDB09FCD179
S113187001232380E37BDB09FCD1AA0052199100E8
S1131880314B5B185A88228019792172DB88638175
S11318900C231340082B37D0002B3FD1AB005D192C
S11318A0AA00294B9B189B8923830023638301236C
S11318B0637331002000254B98472000244B984740
S11318C01230C0B243B2002B0ADB1F2101400122B7
S11318D08A4080211F4C6250BFF34F8FBFF36F8F3C
S11318E0002B07DB1F21014001228A40C02149004F
S11318F0184C6250002B05DB1F2318401E3B83400D
S1131900144A1360002070BDAB005D19AA000E4B91
S11319109B18DB68A3610023E361C8E7042BC6D1ED
S1131920094AAB005819810008005118097B217637
S1131930002161761218137A2375B8E7F5170000B1
S1131940001D0000850C0000EC1C0000DD170000E9
S1131950CD17000000E100E0C268138802210B43A8
S11319609BB213807047C268138802218B43138093
S11319707047C3681B885B0801201840704700202B
S11319807047000010B5C068034B98471230C0B2CE
S1131990024B984710BDC046CD170000E90D00006A
S11319A010B5024B1868024B984710BD3C0000204C
S11319B0B51700007047000010B582B06B46DC1DFF
S11319C0012221000748084B98472378312B01D086
S11319D002B010BD0022054B1A700548054B98470C
S11319E0F6E7C046600000203906000040000020F1
S11319F044000020B108000010B50448044B984787
S1131A0080229202C023DB055A6110BD44000020ED
S1131A10ED080000F0B583B04000012318436B4685
S1131A20D91D08709C1D00232370C025ED05802658
S1131A30B6006E61064F01223800064B984701221A
S1131A4021003800044B9847AE61207803B0F0BD04
S1131A50BC000020010600003906000000B583B078
S1131A600020084B98476B46D91D08700122064890
S1131A70064B984780229202C023DB05DA6103B04B
S1131A8000BDC046151A00006000002001060000D9
S1131A9070B5124B9847124C124A01212000124D86
S1131AA0A847124A00212000A8472000104B98475D
S1131AB010490A20104B9847104903238B60104BA0
S1131AC0CB6001230B740F4C20000F4B9847200070
S1131AD00E4B98470E480F4B9847FEE71501000040
S1131AE060000020B51900000D0C0000B9190000B9
S1131AF0E10B0000F919000029050000C8000020CE
S1131B005D1A00004400002029090000B10800000B
S1131B10B0000020C906000010B50023002802D040
S1131B2000F004F8431C180010BDC04641420840B0
S1131B301C2101231B04984201D3000C10391B0AF9
S1131B40984201D3000A08391B09984201D30009BD
S1131B50043902A2105C401A7047C0461B1C1D1DAC
S1131B601E1E1E1E1F1F1F1F1F1F1F1F70B50026B6
S1131B700C4D0D4C641BA410A64209D1002600F0A4
S1131B80C9F80A4D0A4C641BA410A64205D170BDC5
S1131B90B300EB5898470136EEE7B300EB5898478B
S1131BA00136F2E7201D0000201D0000201D00006A
S1131BB0241D00002E2E2F68616C2F7372632F6812
S1131BC0616C5F696F2E63002E2E2F68616C2F731A
S1131BD072632F68616C5F7370695F6D5F73796E98
S1131BE0632E63002E2E2F68616C2F7372632F682F
S1131BF0616C5F74696D65722E6300002E2E2F6810
S1131C00616C2F7372632F68616C5F75736172749A
S1131C105F6173796E632E63000000002E2E2F68BF
S1131C20616C2F7574696C732F7372632F7574698B
S1131C306C735F6C6973742E630000002E2E2F6822
S1131C40616C2F7574696C732F7372632F7574696B
S1131C506C735F72696E676275666665722E630087
S1131C600A0000000A0000002E2E2F68706C2F65F9
S1131C7069632F68706C5F6569632E630000000000
S1131C80040000000400104000000300B1BB000089
S1131C900000000000000000000000000000000040
S1131CA00000000000000000000000000000000030
S1131CB00000000000000000000000000C00110003
S1131CC000000200000000004F00FF0100000000BF
S1131CD02E2E2F68706C2F736572636F6D2F687072
S1131CE06C5F736572636F6D2E630000030068059B
S1131CF000000000000000000000000000000000E0
S1131D002E2E2F68706C2F74632F68706C5F746351
S1131D102E630000F8B5C046F8BC08BC9E46704768
S1131D20DD000000F8B5C046F8BC08BC9E4670470C
S1071D30B5000000F6
S9030000FC
